{
  "address": "0x508fDf90951c1a31FAA5dCd119f3b60E0e0E87fB",
  "abi": [
    {
      "inputs": [
        {
          "internalType": "address",
          "name": "_factoryV2",
          "type": "address"
        },
        {
          "internalType": "address",
          "name": "factoryV3",
          "type": "address"
        },
        {
          "internalType": "address",
          "name": "_positionManager",
          "type": "address"
        },
        {
          "internalType": "address",
          "name": "_WETH9",
          "type": "address"
        }
      ],
      "stateMutability": "nonpayable",
      "type": "constructor"
    },
    {
      "inputs": [],
      "name": "WETH9",
      "outputs": [
        {
          "internalType": "address",
          "name": "",
          "type": "address"
        }
      ],
      "stateMutability": "view",
      "type": "function"
    },
    {
      "inputs": [
        {
          "internalType": "address",
          "name": "token",
          "type": "address"
        }
      ],
      "name": "approveMax",
      "outputs": [],
      "stateMutability": "payable",
      "type": "function"
    },
    {
      "inputs": [
        {
          "internalType": "address",
          "name": "token",
          "type": "address"
        }
      ],
      "name": "approveMaxMinusOne",
      "outputs": [],
      "stateMutability": "payable",
      "type": "function"
    },
    {
      "inputs": [
        {
          "internalType": "address",
          "name": "token",
          "type": "address"
        }
      ],
      "name": "approveZeroThenMax",
      "outputs": [],
      "stateMutability": "payable",
      "type": "function"
    },
    {
      "inputs": [
        {
          "internalType": "address",
          "name": "token",
          "type": "address"
        }
      ],
      "name": "approveZeroThenMaxMinusOne",
      "outputs": [],
      "stateMutability": "payable",
      "type": "function"
    },
    {
      "inputs": [
        {
          "internalType": "bytes",
          "name": "data",
          "type": "bytes"
        }
      ],
      "name": "callPositionManager",
      "outputs": [
        {
          "internalType": "bytes",
          "name": "result",
          "type": "bytes"
        }
      ],
      "stateMutability": "payable",
      "type": "function"
    },
    {
      "inputs": [
        {
          "internalType": "bytes[]",
          "name": "paths",
          "type": "bytes[]"
        },
        {
          "internalType": "uint128[]",
          "name": "amounts",
          "type": "uint128[]"
        },
        {
          "internalType": "uint24",
          "name": "maximumTickDivergence",
          "type": "uint24"
        },
        {
          "internalType": "uint32",
          "name": "secondsAgo",
          "type": "uint32"
        }
      ],
      "name": "checkOracleSlippage",
      "outputs": [],
      "stateMutability": "view",
      "type": "function"
    },
    {
      "inputs": [
        {
          "internalType": "bytes",
          "name": "path",
          "type": "bytes"
        },
        {
          "internalType": "uint24",
          "name": "maximumTickDivergence",
          "type": "uint24"
        },
        {
          "internalType": "uint32",
          "name": "secondsAgo",
          "type": "uint32"
        }
      ],
      "name": "checkOracleSlippage",
      "outputs": [],
      "stateMutability": "view",
      "type": "function"
    },
    {
      "inputs": [
        {
          "components": [
            {
              "internalType": "bytes",
              "name": "path",
              "type": "bytes"
            },
            {
              "internalType": "address",
              "name": "recipient",
              "type": "address"
            },
            {
              "internalType": "uint256",
              "name": "amountIn",
              "type": "uint256"
            },
            {
              "internalType": "uint256",
              "name": "amountOutMinimum",
              "type": "uint256"
            }
          ],
          "internalType": "struct IV3SwapRouter.ExactInputParams",
          "name": "params",
          "type": "tuple"
        }
      ],
      "name": "exactInput",
      "outputs": [
        {
          "internalType": "uint256",
          "name": "amountOut",
          "type": "uint256"
        }
      ],
      "stateMutability": "payable",
      "type": "function"
    },
    {
      "inputs": [
        {
          "components": [
            {
              "internalType": "address",
              "name": "tokenIn",
              "type": "address"
            },
            {
              "internalType": "address",
              "name": "tokenOut",
              "type": "address"
            },
            {
              "internalType": "uint24",
              "name": "fee",
              "type": "uint24"
            },
            {
              "internalType": "address",
              "name": "recipient",
              "type": "address"
            },
            {
              "internalType": "uint256",
              "name": "amountIn",
              "type": "uint256"
            },
            {
              "internalType": "uint256",
              "name": "amountOutMinimum",
              "type": "uint256"
            },
            {
              "internalType": "uint160",
              "name": "sqrtPriceLimitX96",
              "type": "uint160"
            }
          ],
          "internalType": "struct IV3SwapRouter.ExactInputSingleParams",
          "name": "params",
          "type": "tuple"
        }
      ],
      "name": "exactInputSingle",
      "outputs": [
        {
          "internalType": "uint256",
          "name": "amountOut",
          "type": "uint256"
        }
      ],
      "stateMutability": "payable",
      "type": "function"
    },
    {
      "inputs": [
        {
          "components": [
            {
              "internalType": "bytes",
              "name": "path",
              "type": "bytes"
            },
            {
              "internalType": "address",
              "name": "recipient",
              "type": "address"
            },
            {
              "internalType": "uint256",
              "name": "amountOut",
              "type": "uint256"
            },
            {
              "internalType": "uint256",
              "name": "amountInMaximum",
              "type": "uint256"
            }
          ],
          "internalType": "struct IV3SwapRouter.ExactOutputParams",
          "name": "params",
          "type": "tuple"
        }
      ],
      "name": "exactOutput",
      "outputs": [
        {
          "internalType": "uint256",
          "name": "amountIn",
          "type": "uint256"
        }
      ],
      "stateMutability": "payable",
      "type": "function"
    },
    {
      "inputs": [
        {
          "components": [
            {
              "internalType": "address",
              "name": "tokenIn",
              "type": "address"
            },
            {
              "internalType": "address",
              "name": "tokenOut",
              "type": "address"
            },
            {
              "internalType": "uint24",
              "name": "fee",
              "type": "uint24"
            },
            {
              "internalType": "address",
              "name": "recipient",
              "type": "address"
            },
            {
              "internalType": "uint256",
              "name": "amountOut",
              "type": "uint256"
            },
            {
              "internalType": "uint256",
              "name": "amountInMaximum",
              "type": "uint256"
            },
            {
              "internalType": "uint160",
              "name": "sqrtPriceLimitX96",
              "type": "uint160"
            }
          ],
          "internalType": "struct IV3SwapRouter.ExactOutputSingleParams",
          "name": "params",
          "type": "tuple"
        }
      ],
      "name": "exactOutputSingle",
      "outputs": [
        {
          "internalType": "uint256",
          "name": "amountIn",
          "type": "uint256"
        }
      ],
      "stateMutability": "payable",
      "type": "function"
    },
    {
      "inputs": [],
      "name": "factory",
      "outputs": [
        {
          "internalType": "address",
          "name": "",
          "type": "address"
        }
      ],
      "stateMutability": "view",
      "type": "function"
    },
    {
      "inputs": [],
      "name": "factoryV2",
      "outputs": [
        {
          "internalType": "address",
          "name": "",
          "type": "address"
        }
      ],
      "stateMutability": "view",
      "type": "function"
    },
    {
      "inputs": [
        {
          "internalType": "address",
          "name": "token",
          "type": "address"
        },
        {
          "internalType": "uint256",
          "name": "amount",
          "type": "uint256"
        }
      ],
      "name": "getApprovalType",
      "outputs": [
        {
          "internalType": "enum IApproveAndCall.ApprovalType",
          "name": "",
          "type": "uint8"
        }
      ],
      "stateMutability": "nonpayable",
      "type": "function"
    },
    {
      "inputs": [
        {
          "components": [
            {
              "internalType": "address",
              "name": "token0",
              "type": "address"
            },
            {
              "internalType": "address",
              "name": "token1",
              "type": "address"
            },
            {
              "internalType": "uint256",
              "name": "tokenId",
              "type": "uint256"
            },
            {
              "internalType": "uint256",
              "name": "amount0Min",
              "type": "uint256"
            },
            {
              "internalType": "uint256",
              "name": "amount1Min",
              "type": "uint256"
            }
          ],
          "internalType": "struct IApproveAndCall.IncreaseLiquidityParams",
          "name": "params",
          "type": "tuple"
        }
      ],
      "name": "increaseLiquidity",
      "outputs": [
        {
          "internalType": "bytes",
          "name": "result",
          "type": "bytes"
        }
      ],
      "stateMutability": "payable",
      "type": "function"
    },
    {
      "inputs": [
        {
          "components": [
            {
              "internalType": "address",
              "name": "token0",
              "type": "address"
            },
            {
              "internalType": "address",
              "name": "token1",
              "type": "address"
            },
            {
              "internalType": "uint24",
              "name": "fee",
              "type": "uint24"
            },
            {
              "internalType": "int24",
              "name": "tickLower",
              "type": "int24"
            },
            {
              "internalType": "int24",
              "name": "tickUpper",
              "type": "int24"
            },
            {
              "internalType": "uint256",
              "name": "amount0Min",
              "type": "uint256"
            },
            {
              "internalType": "uint256",
              "name": "amount1Min",
              "type": "uint256"
            },
            {
              "internalType": "address",
              "name": "recipient",
              "type": "address"
            }
          ],
          "internalType": "struct IApproveAndCall.MintParams",
          "name": "params",
          "type": "tuple"
        }
      ],
      "name": "mint",
      "outputs": [
        {
          "internalType": "bytes",
          "name": "result",
          "type": "bytes"
        }
      ],
      "stateMutability": "payable",
      "type": "function"
    },
    {
      "inputs": [
        {
          "internalType": "bytes32",
          "name": "previousBlockhash",
          "type": "bytes32"
        },
        {
          "internalType": "bytes[]",
          "name": "data",
          "type": "bytes[]"
        }
      ],
      "name": "multicall",
      "outputs": [
        {
          "internalType": "bytes[]",
          "name": "",
          "type": "bytes[]"
        }
      ],
      "stateMutability": "payable",
      "type": "function"
    },
    {
      "inputs": [
        {
          "internalType": "uint256",
          "name": "deadline",
          "type": "uint256"
        },
        {
          "internalType": "bytes[]",
          "name": "data",
          "type": "bytes[]"
        }
      ],
      "name": "multicall",
      "outputs": [
        {
          "internalType": "bytes[]",
          "name": "",
          "type": "bytes[]"
        }
      ],
      "stateMutability": "payable",
      "type": "function"
    },
    {
      "inputs": [
        {
          "internalType": "bytes[]",
          "name": "data",
          "type": "bytes[]"
        }
      ],
      "name": "multicall",
      "outputs": [
        {
          "internalType": "bytes[]",
          "name": "results",
          "type": "bytes[]"
        }
      ],
      "stateMutability": "payable",
      "type": "function"
    },
    {
      "inputs": [],
      "name": "positionManager",
      "outputs": [
        {
          "internalType": "address",
          "name": "",
          "type": "address"
        }
      ],
      "stateMutability": "view",
      "type": "function"
    },
    {
      "inputs": [
        {
          "internalType": "address",
          "name": "token",
          "type": "address"
        },
        {
          "internalType": "uint256",
          "name": "value",
          "type": "uint256"
        }
      ],
      "name": "pull",
      "outputs": [],
      "stateMutability": "payable",
      "type": "function"
    },
    {
      "inputs": [],
      "name": "refundETH",
      "outputs": [],
      "stateMutability": "payable",
      "type": "function"
    },
    {
      "inputs": [
        {
          "internalType": "address",
          "name": "token",
          "type": "address"
        },
        {
          "internalType": "uint256",
          "name": "value",
          "type": "uint256"
        },
        {
          "internalType": "uint256",
          "name": "deadline",
          "type": "uint256"
        },
        {
          "internalType": "uint8",
          "name": "v",
          "type": "uint8"
        },
        {
          "internalType": "bytes32",
          "name": "r",
          "type": "bytes32"
        },
        {
          "internalType": "bytes32",
          "name": "s",
          "type": "bytes32"
        }
      ],
      "name": "selfPermit",
      "outputs": [],
      "stateMutability": "payable",
      "type": "function"
    },
    {
      "inputs": [
        {
          "internalType": "address",
          "name": "token",
          "type": "address"
        },
        {
          "internalType": "uint256",
          "name": "nonce",
          "type": "uint256"
        },
        {
          "internalType": "uint256",
          "name": "expiry",
          "type": "uint256"
        },
        {
          "internalType": "uint8",
          "name": "v",
          "type": "uint8"
        },
        {
          "internalType": "bytes32",
          "name": "r",
          "type": "bytes32"
        },
        {
          "internalType": "bytes32",
          "name": "s",
          "type": "bytes32"
        }
      ],
      "name": "selfPermitAllowed",
      "outputs": [],
      "stateMutability": "payable",
      "type": "function"
    },
    {
      "inputs": [
        {
          "internalType": "address",
          "name": "token",
          "type": "address"
        },
        {
          "internalType": "uint256",
          "name": "nonce",
          "type": "uint256"
        },
        {
          "internalType": "uint256",
          "name": "expiry",
          "type": "uint256"
        },
        {
          "internalType": "uint8",
          "name": "v",
          "type": "uint8"
        },
        {
          "internalType": "bytes32",
          "name": "r",
          "type": "bytes32"
        },
        {
          "internalType": "bytes32",
          "name": "s",
          "type": "bytes32"
        }
      ],
      "name": "selfPermitAllowedIfNecessary",
      "outputs": [],
      "stateMutability": "payable",
      "type": "function"
    },
    {
      "inputs": [
        {
          "internalType": "address",
          "name": "token",
          "type": "address"
        },
        {
          "internalType": "uint256",
          "name": "value",
          "type": "uint256"
        },
        {
          "internalType": "uint256",
          "name": "deadline",
          "type": "uint256"
        },
        {
          "internalType": "uint8",
          "name": "v",
          "type": "uint8"
        },
        {
          "internalType": "bytes32",
          "name": "r",
          "type": "bytes32"
        },
        {
          "internalType": "bytes32",
          "name": "s",
          "type": "bytes32"
        }
      ],
      "name": "selfPermitIfNecessary",
      "outputs": [],
      "stateMutability": "payable",
      "type": "function"
    },
    {
      "inputs": [
        {
          "internalType": "uint256",
          "name": "amountIn",
          "type": "uint256"
        },
        {
          "internalType": "uint256",
          "name": "amountOutMin",
          "type": "uint256"
        },
        {
          "internalType": "address[]",
          "name": "path",
          "type": "address[]"
        },
        {
          "internalType": "address",
          "name": "to",
          "type": "address"
        }
      ],
      "name": "swapExactTokensForTokens",
      "outputs": [
        {
          "internalType": "uint256",
          "name": "amountOut",
          "type": "uint256"
        }
      ],
      "stateMutability": "payable",
      "type": "function"
    },
    {
      "inputs": [
        {
          "internalType": "uint256",
          "name": "amountOut",
          "type": "uint256"
        },
        {
          "internalType": "uint256",
          "name": "amountInMax",
          "type": "uint256"
        },
        {
          "internalType": "address[]",
          "name": "path",
          "type": "address[]"
        },
        {
          "internalType": "address",
          "name": "to",
          "type": "address"
        }
      ],
      "name": "swapTokensForExactTokens",
      "outputs": [
        {
          "internalType": "uint256",
          "name": "amountIn",
          "type": "uint256"
        }
      ],
      "stateMutability": "payable",
      "type": "function"
    },
    {
      "inputs": [
        {
          "internalType": "address",
          "name": "token",
          "type": "address"
        },
        {
          "internalType": "uint256",
          "name": "amountMinimum",
          "type": "uint256"
        },
        {
          "internalType": "address",
          "name": "recipient",
          "type": "address"
        }
      ],
      "name": "sweepToken",
      "outputs": [],
      "stateMutability": "payable",
      "type": "function"
    },
    {
      "inputs": [
        {
          "internalType": "address",
          "name": "token",
          "type": "address"
        },
        {
          "internalType": "uint256",
          "name": "amountMinimum",
          "type": "uint256"
        }
      ],
      "name": "sweepToken",
      "outputs": [],
      "stateMutability": "payable",
      "type": "function"
    },
    {
      "inputs": [
        {
          "internalType": "address",
          "name": "token",
          "type": "address"
        },
        {
          "internalType": "uint256",
          "name": "amountMinimum",
          "type": "uint256"
        },
        {
          "internalType": "uint256",
          "name": "feeBips",
          "type": "uint256"
        },
        {
          "internalType": "address",
          "name": "feeRecipient",
          "type": "address"
        }
      ],
      "name": "sweepTokenWithFee",
      "outputs": [],
      "stateMutability": "payable",
      "type": "function"
    },
    {
      "inputs": [
        {
          "internalType": "address",
          "name": "token",
          "type": "address"
        },
        {
          "internalType": "uint256",
          "name": "amountMinimum",
          "type": "uint256"
        },
        {
          "internalType": "address",
          "name": "recipient",
          "type": "address"
        },
        {
          "internalType": "uint256",
          "name": "feeBips",
          "type": "uint256"
        },
        {
          "internalType": "address",
          "name": "feeRecipient",
          "type": "address"
        }
      ],
      "name": "sweepTokenWithFee",
      "outputs": [],
      "stateMutability": "payable",
      "type": "function"
    },
    {
      "inputs": [
        {
          "internalType": "uint256",
          "name": "amountMinimum",
          "type": "uint256"
        },
        {
          "internalType": "address",
          "name": "recipient",
          "type": "address"
        }
      ],
      "name": "unwrapWETH9",
      "outputs": [],
      "stateMutability": "payable",
      "type": "function"
    },
    {
      "inputs": [
        {
          "internalType": "uint256",
          "name": "amountMinimum",
          "type": "uint256"
        }
      ],
      "name": "unwrapWETH9",
      "outputs": [],
      "stateMutability": "payable",
      "type": "function"
    },
    {
      "inputs": [
        {
          "internalType": "uint256",
          "name": "amountMinimum",
          "type": "uint256"
        },
        {
          "internalType": "address",
          "name": "recipient",
          "type": "address"
        },
        {
          "internalType": "uint256",
          "name": "feeBips",
          "type": "uint256"
        },
        {
          "internalType": "address",
          "name": "feeRecipient",
          "type": "address"
        }
      ],
      "name": "unwrapWETH9WithFee",
      "outputs": [],
      "stateMutability": "payable",
      "type": "function"
    },
    {
      "inputs": [
        {
          "internalType": "uint256",
          "name": "amountMinimum",
          "type": "uint256"
        },
        {
          "internalType": "uint256",
          "name": "feeBips",
          "type": "uint256"
        },
        {
          "internalType": "address",
          "name": "feeRecipient",
          "type": "address"
        }
      ],
      "name": "unwrapWETH9WithFee",
      "outputs": [],
      "stateMutability": "payable",
      "type": "function"
    },
    {
      "inputs": [
        {
          "internalType": "uint256",
          "name": "value",
          "type": "uint256"
        }
      ],
      "name": "wrapETH",
      "outputs": [],
      "stateMutability": "payable",
      "type": "function"
    },
    {
      "inputs": [
        {
          "internalType": "int256",
          "name": "amount0Delta",
          "type": "int256"
        },
        {
          "internalType": "int256",
          "name": "amount1Delta",
          "type": "int256"
        },
        {
          "internalType": "bytes",
          "name": "_data",
          "type": "bytes"
        }
      ],
      "name": "yumyumswapSwapCallback",
      "outputs": [],
      "stateMutability": "nonpayable",
      "type": "function"
    },
    {
      "stateMutability": "payable",
      "type": "receive"
    }
  ],
  "transactionHash": "0x767d11a40212445bc9cb9c520207882030430acf8a4a4c72d5f300c41f282d9b",
  "args": [
    "0x0000000000000000000000000000000000000000",
    "0x06393b72873077c523ed10B3Db69087875AF61ef",
    "0xAC714A42bF2C9f8596ecF21BddabE8459dfb313e",
    "0xA1077a294dDE1B09bB078844df40758a5D0f9a27"
  ],
  "solcInputHash": "9f2164e8d0a576669f0eec1d10c25cca",
  "bytecode": "0x6101006040526000196000553480156200001857600080fd5b5060405162006135380380620061358339810160408190526200003b9162000087565b6001600160601b0319606094851b811660805291841b821660a05291831b811660c052911b1660e052620000e3565b80516001600160a01b03811681146200008257600080fd5b919050565b600080600080608085870312156200009d578384fd5b620000a8856200006a565b9350620000b8602086016200006a565b9250620000c8604086016200006a565b9150620000d8606086016200006a565b905092959194509250565b60805160601c60a05160601c60c05160601c60e05160601c615fb162000184600039806102c15280610b3c52806112ad52806113d7528061147e52806117f3528061191d5280612d8f5280612def5280612e7052508061167a5280611f905280613cdb5250806117b35280611c5e5280611fe052806132a6525080610c625280610d365280610fe2528061178f5280612fc252806131855250615fb16000f3fe6080604052600436106102a45760003560e01c8063791b98bc1161016e578063d4ef38de116100cb578063efdeed8e1161007f578063f25801a711610064578063f25801a71461066e578063f2d5d56b1461068e578063f3995c67146106a15761034f565b8063efdeed8e1461063b578063f100b2051461065b5761034f565b8063df2ab5bb116100b0578063df2ab5bb14610602578063e0e189a014610615578063e90a182f146106285761034f565b8063d4ef38de146105c2578063dee00f35146105d55761034f565b8063b3a2af1311610122578063c2e3140a11610107578063c2e3140a14610587578063c45a01551461059a578063cab372ce146105af5761034f565b8063b3a2af1314610561578063b858183f146105745761034f565b8063a4a78f0c11610153578063a4a78f0c14610528578063ab3fdd501461053b578063ac9650d81461054e5761034f565b8063791b98bc146105005780639b2c0a37146105155761034f565b8063472b43f31161021c578063571ac8b0116101d05780635f11f4c9116101b55780635f11f4c9146104b8578063639d71a9146104d857806368e0d4e1146104eb5761034f565b8063571ac8b0146104925780635ae401dc146104a55761034f565b80634961699711610201578063496169971461044a5780634aa4a4fc1461045d5780635023b4df1461047f5761034f565b8063472b43f31461042457806349404b7c146104375761034f565b80631c58db4f116102735780633068c554116102585780633068c554146103eb57806342712a67146103fe5780634659a494146104115761034f565b80631c58db4f146103b85780631f0464d1146103cb5761034f565b806304e45aaf1461035457806309b813461461037d57806311ed56c91461039057806312210e8a146103b05761034f565b3661034f573373ffffffffffffffffffffffffffffffffffffffff7f0000000000000000000000000000000000000000000000000000000000000000161461034d57604080517f08c379a000000000000000000000000000000000000000000000000000000000815260206004820152600960248201527f4e6f742057455448390000000000000000000000000000000000000000000000604482015290519081900360640190fd5b005b600080fd5b610367610362366004615543565b6106b4565b6040516103749190615dfd565b60405180910390f35b61036761038b3660046155de565b61083c565b6103a361039e366004615638565b61091c565b6040516103749190615b7a565b61034d610b28565b61034d6103c63660046157bb565b610b3a565b6103de6103d93660046152a7565b610bbe565b6040516103749190615afc565b61034d6103f93660046150d8565b610c48565b61036761040c366004615885565b610c5b565b61034d61041f366004615121565b610e35565b610367610432366004615885565b610ef5565b61034d6104453660046157eb565b6112a9565b61034d6104583660046157bb565b61146f565b34801561046957600080fd5b5061047261147c565b6040516103749190615a3c565b61036761048d366004615616565b6114a0565b61034d6104a0366004614feb565b611589565b6103de6104b33660046152a7565b6115bc565b3480156104c457600080fd5b5061034d6104d33660046153b8565b611635565b61034d6104e6366004614feb565b611779565b3480156104f757600080fd5b5061047261178d565b34801561050c57600080fd5b506104726117b1565b61034d61052336600461581a565b6117d5565b61034d610536366004615121565b6119eb565b61034d610549366004614feb565b611ac0565b6103de61055c36600461517c565b611afe565b6103a361056f3660046152f1565b611c58565b61036761058236600461549d565b611d16565b61034d610595366004615121565b611ed9565b3480156105a657600080fd5b50610472611f8e565b61034d6105bd366004614feb565b611ad4565b61034d6105d0366004615858565b611fb2565b3480156105e157600080fd5b506105f56105f036600461500e565b611fbe565b6040516103749190615b8d565b61034d610610366004615039565b61216b565b61034d61062336600461507a565b612282565b61034d61063636600461500e565b6123e8565b34801561064757600080fd5b5061034d6106563660046151bc565b6123f7565b6103a3610669366004615627565b612449565b34801561067a57600080fd5b5061034d610689366004615324565b6124e9565b61034d61069c36600461500e565b61253a565b61034d6106af366004615121565b612546565b600080600083608001511415610771575081516040517f70a0823100000000000000000000000000000000000000000000000000000000815260019173ffffffffffffffffffffffffffffffffffffffff16906370a082319061071b903090600401615a3c565b60206040518083038186803b15801561073357600080fd5b505afa158015610747573d6000803e3d6000fd5b505050506040513d601f19601f8201168201806040525081019061076b91906157d3565b60808401525b6107ed836080015184606001518560c001516040518060400160405280886000015189604001518a602001516040516020016107af939291906159aa565b6040516020818303038152906040528152602001866107ce57336107d0565b305b73ffffffffffffffffffffffffffffffffffffffff1690526125de565b91508260a00151821015610836576040517f08c379a000000000000000000000000000000000000000000000000000000000815260040161082d90615c7d565b60405180910390fd5b50919050565b60006108b0604083018035906108559060208601614feb565b604080518082019091526000908061086d8880615e41565b8080601f0160208091040260200160405190810160405280939291908181526020018383808284376000920191909152505050908252503360209091015261278f565b505060005460608201358111156108f3576040517f08c379a000000000000000000000000000000000000000000000000000000000815260040161082d90615c0f565b7fffffffffffffffffffffffffffffffffffffffffffffffffffffffffffffffff600055919050565b604080516101608101909152606090610b20907f8831645600000000000000000000000000000000000000000000000000000000908061095f6020870187614feb565b73ffffffffffffffffffffffffffffffffffffffff16815260200185602001602081019061098d9190614feb565b73ffffffffffffffffffffffffffffffffffffffff1681526020016109b860608701604088016157a1565b62ffffff1681526020016109d26080870160608801615379565b60020b81526020016109ea60a0870160808801615379565b60020b8152602090810190610a0a90610a0590880188614feb565b612976565b8152602001610a25866020016020810190610a059190614feb565b815260a0860135602082015260c08601356040820152606001610a4f610100870160e08801614feb565b73ffffffffffffffffffffffffffffffffffffffff1681526020017fffffffffffffffffffffffffffffffffffffffffffffffffffffffffffffffff815250604051602401610a9e9190615cf8565b604080517fffffffffffffffffffffffffffffffffffffffffffffffffffffffffffffffe08184030181529190526020810180517bffffffffffffffffffffffffffffffffffffffffffffffffffffffff167fffffffff0000000000000000000000000000000000000000000000000000000090931692909217909152611c58565b90505b919050565b4715610b3857610b383347612a1b565b565b7f000000000000000000000000000000000000000000000000000000000000000073ffffffffffffffffffffffffffffffffffffffff1663d0e30db0826040518263ffffffff1660e01b81526004016000604051808303818588803b158015610ba257600080fd5b505af1158015610bb6573d6000803e3d6000fd5b505050505050565b60608380600143034014610c3357604080517f08c379a000000000000000000000000000000000000000000000000000000000815260206004820152600960248201527f426c6f636b686173680000000000000000000000000000000000000000000000604482015290519081900360640190fd5b610c3d8484611afe565b91505b509392505050565b610c558484338585612282565b50505050565b6000610cbb7f000000000000000000000000000000000000000000000000000000000000000087868680806020026020016040519081016040528093929190818152602001838360200280828437600092019190915250612b6992505050565b600081518110610cc757fe5b6020026020010151905084811115610d0b576040517f08c379a000000000000000000000000000000000000000000000000000000000815260040161082d90615c0f565b610da484846000818110610d1b57fe5b9050602002016020810190610d309190614feb565b33610d9e7f000000000000000000000000000000000000000000000000000000000000000088886000818110610d6257fe5b9050602002016020810190610d779190614feb565b89896001818110610d8457fe5b9050602002016020810190610d999190614feb565b612ca2565b84612d8d565b73ffffffffffffffffffffffffffffffffffffffff821660011415610dcb57339150610dee565b73ffffffffffffffffffffffffffffffffffffffff821660021415610dee573091505b610e2c848480806020026020016040519081016040528093929190818152602001838360200280828437600092019190915250869250612f6b915050565b95945050505050565b604080517f8fcbaf0c00000000000000000000000000000000000000000000000000000000815233600482015230602482015260448101879052606481018690526001608482015260ff851660a482015260c4810184905260e48101839052905173ffffffffffffffffffffffffffffffffffffffff881691638fcbaf0c9161010480830192600092919082900301818387803b158015610ed557600080fd5b505af1158015610ee9573d6000803e3d6000fd5b50505050505050505050565b60008086610fab575060018484600081610f0b57fe5b9050602002016020810190610f209190614feb565b73ffffffffffffffffffffffffffffffffffffffff166370a08231306040518263ffffffff1660e01b8152600401610f589190615a3c565b60206040518083038186803b158015610f7057600080fd5b505afa158015610f84573d6000803e3d6000fd5b505050506040513d601f19601f82011682018060405250810190610fa891906157d3565b96505b61103685856000818110610fbb57fe5b9050602002016020810190610fd09190614feb565b82610fdb5733610fdd565b305b6110307f00000000000000000000000000000000000000000000000000000000000000008989600081811061100e57fe5b90506020020160208101906110239190614feb565b8a8a6001818110610d8457fe5b8a612d8d565b73ffffffffffffffffffffffffffffffffffffffff83166001141561105d57339250611080565b73ffffffffffffffffffffffffffffffffffffffff831660021415611080573092505b600085857fffffffffffffffffffffffffffffffffffffffffffffffffffffffffffffffff81018181106110b057fe5b90506020020160208101906110c59190614feb565b73ffffffffffffffffffffffffffffffffffffffff166370a08231856040518263ffffffff1660e01b81526004016110fd9190615a3c565b60206040518083038186803b15801561111557600080fd5b505afa158015611129573d6000803e3d6000fd5b505050506040513d601f19601f8201168201806040525081019061114d91906157d3565b905061118d868680806020026020016040519081016040528093929190818152602001838360200280828437600092019190915250889250612f6b915050565b6112628187877fffffffffffffffffffffffffffffffffffffffffffffffffffffffffffffffff81018181106111bf57fe5b90506020020160208101906111d49190614feb565b73ffffffffffffffffffffffffffffffffffffffff166370a08231876040518263ffffffff1660e01b815260040161120c9190615a3c565b60206040518083038186803b15801561122457600080fd5b505afa158015611238573d6000803e3d6000fd5b505050506040513d601f19601f8201168201806040525081019061125c91906157d3565b90613270565b92508683101561129e576040517f08c379a000000000000000000000000000000000000000000000000000000000815260040161082d90615c7d565b505095945050505050565b60007f000000000000000000000000000000000000000000000000000000000000000073ffffffffffffffffffffffffffffffffffffffff166370a08231306040518263ffffffff1660e01b8152600401808273ffffffffffffffffffffffffffffffffffffffff16815260200191505060206040518083038186803b15801561133257600080fd5b505afa158015611346573d6000803e3d6000fd5b505050506040513d602081101561135c57600080fd5b50519050828110156113cf57604080517f08c379a000000000000000000000000000000000000000000000000000000000815260206004820152601260248201527f496e73756666696369656e742057455448390000000000000000000000000000604482015290519081900360640190fd5b801561146a577f000000000000000000000000000000000000000000000000000000000000000073ffffffffffffffffffffffffffffffffffffffff16632e1a7d4d826040518263ffffffff1660e01b815260040180828152602001915050600060405180830381600087803b15801561144857600080fd5b505af115801561145c573d6000803e3d6000fd5b5050505061146a8282612a1b565b505050565b61147981336112a9565b50565b7f000000000000000000000000000000000000000000000000000000000000000081565b6000611549608083018035906114b99060608601614feb565b6114c960e0860160c08701614feb565b60405180604001604052808760200160208101906114e79190614feb565b6114f760608a0160408b016157a1565b61150460208b018b614feb565b604051602001611516939291906159aa565b60405160208183030381529060405281526020013373ffffffffffffffffffffffffffffffffffffffff1681525061278f565b90508160a001358111156108f3576040517f08c379a000000000000000000000000000000000000000000000000000000000815260040161082d90615c0f565b6115b3817fffffffffffffffffffffffffffffffffffffffffffffffffffffffffffffffff613280565b61147957600080fd5b606083806115c86133cc565b1115610c3357604080517f08c379a000000000000000000000000000000000000000000000000000000000815260206004820152601360248201527f5472616e73616374696f6e20746f6f206f6c6400000000000000000000000000604482015290519081900360640190fd5b60008413806116445750600083135b61164d57600080fd5b600061165b8284018461564a565b9050600080600061166f84600001516133d0565b9250925092506116a17f0000000000000000000000000000000000000000000000000000000000000000848484613401565b5060008060008a136116e2578473ffffffffffffffffffffffffffffffffffffffff168473ffffffffffffffffffffffffffffffffffffffff161089611713565b8373ffffffffffffffffffffffffffffffffffffffff168573ffffffffffffffffffffffffffffffffffffffff16108a5b9150915081156117325761172d8587602001513384612d8d565b610ee9565b855161173d90613417565b1561176257855161174d9061341f565b865261175c813360008961278f565b50610ee9565b80600081905550610ee98487602001513384612d8d565b611784816000613280565b61158957600080fd5b7f000000000000000000000000000000000000000000000000000000000000000081565b7f000000000000000000000000000000000000000000000000000000000000000081565b6000821180156117e6575060648211155b6117ef57600080fd5b60007f000000000000000000000000000000000000000000000000000000000000000073ffffffffffffffffffffffffffffffffffffffff166370a08231306040518263ffffffff1660e01b8152600401808273ffffffffffffffffffffffffffffffffffffffff16815260200191505060206040518083038186803b15801561187857600080fd5b505afa15801561188c573d6000803e3d6000fd5b505050506040513d60208110156118a257600080fd5b505190508481101561191557604080517f08c379a000000000000000000000000000000000000000000000000000000000815260206004820152601260248201527f496e73756666696369656e742057455448390000000000000000000000000000604482015290519081900360640190fd5b80156119e4577f000000000000000000000000000000000000000000000000000000000000000073ffffffffffffffffffffffffffffffffffffffff16632e1a7d4d826040518263ffffffff1660e01b815260040180828152602001915050600060405180830381600087803b15801561198e57600080fd5b505af11580156119a2573d6000803e3d6000fd5b5050505060006127106119be858461345490919063ffffffff16565b816119c557fe5b04905080156119d8576119d88382612a1b565b610bb685828403612a1b565b5050505050565b604080517fdd62ed3e00000000000000000000000000000000000000000000000000000000815233600482015230602482015290517fffffffffffffffffffffffffffffffffffffffffffffffffffffffffffffffff9173ffffffffffffffffffffffffffffffffffffffff89169163dd62ed3e91604480820192602092909190829003018186803b158015611a8057600080fd5b505afa158015611a94573d6000803e3d6000fd5b505050506040513d6020811015611aaa57600080fd5b50511015610bb657610bb6868686868686610e35565b611acb816000613280565b611ad457600080fd5b6115b3817ffffffffffffffffffffffffffffffffffffffffffffffffffffffffffffffffe613280565b60608167ffffffffffffffff81118015611b1757600080fd5b50604051908082528060200260200182016040528015611b4b57816020015b6060815260200190600190039081611b365790505b50905060005b82811015611c515760008030868685818110611b6957fe5b9050602002810190611b7b9190615e41565b604051611b89929190615a10565b600060405180830381855af49150503d8060008114611bc4576040519150601f19603f3d011682016040523d82523d6000602084013e611bc9565b606091505b509150915081611c2f57604481511015611be257600080fd5b60048101905080806020019051810190611bfc9190615433565b6040517f08c379a000000000000000000000000000000000000000000000000000000000815260040161082d9190615b7a565b80848481518110611c3c57fe5b60209081029190910101525050600101611b51565b5092915050565b606060007f000000000000000000000000000000000000000000000000000000000000000073ffffffffffffffffffffffffffffffffffffffff1683604051611ca19190615a20565b6000604051808303816000865af19150503d8060008114611cde576040519150601f19603f3d011682016040523d82523d6000602084013e611ce3565b606091505b50925090508061083657604482511015611cfc57600080fd5b60048201915081806020019051810190611bfc9190615433565b600080600083604001511415611de757600190506000611d3984600001516133d0565b50506040517f70a0823100000000000000000000000000000000000000000000000000000000815290915073ffffffffffffffffffffffffffffffffffffffff8216906370a0823190611d90903090600401615a3c565b60206040518083038186803b158015611da857600080fd5b505afa158015611dbc573d6000803e3d6000fd5b505050506040513d601f19601f82011682018060405250810190611de091906157d3565b6040850152505b600081611df45733611df6565b305b90505b6000611e088560000151613417565b9050611e61856040015182611e21578660200151611e23565b305b60006040518060400160405280611e3d8b60000151613478565b81526020018773ffffffffffffffffffffffffffffffffffffffff168152506125de565b60408601528015611e81578451309250611e7a9061341f565b8552611e8e565b8460400151935050611e94565b50611df9565b8360600151831015611ed2576040517f08c379a000000000000000000000000000000000000000000000000000000000815260040161082d90615c7d565b5050919050565b604080517fdd62ed3e0000000000000000000000000000000000000000000000000000000081523360048201523060248201529051869173ffffffffffffffffffffffffffffffffffffffff89169163dd62ed3e91604480820192602092909190829003018186803b158015611f4e57600080fd5b505afa158015611f62573d6000803e3d6000fd5b505050506040513d6020811015611f7857600080fd5b50511015610bb657610bb6868686868686612546565b7f000000000000000000000000000000000000000000000000000000000000000081565b61146a833384846117d5565b6000818373ffffffffffffffffffffffffffffffffffffffff1663dd62ed3e307f00000000000000000000000000000000000000000000000000000000000000006040518363ffffffff1660e01b815260040161201c929190615a5d565b60206040518083038186803b15801561203457600080fd5b505afa158015612048573d6000803e3d6000fd5b505050506040513d601f19601f8201168201806040525081019061206c91906157d3565b1061207957506000612165565b6120a3837fffffffffffffffffffffffffffffffffffffffffffffffffffffffffffffffff613280565b156120b057506001612165565b6120da837ffffffffffffffffffffffffffffffffffffffffffffffffffffffffffffffffe613280565b156120e757506002612165565b6120f2836000613280565b6120fb57600080fd5b612125837fffffffffffffffffffffffffffffffffffffffffffffffffffffffffffffffff613280565b1561213257506003612165565b61215c837ffffffffffffffffffffffffffffffffffffffffffffffffffffffffffffffffe613280565b1561034f575060045b92915050565b60008373ffffffffffffffffffffffffffffffffffffffff166370a08231306040518263ffffffff1660e01b8152600401808273ffffffffffffffffffffffffffffffffffffffff16815260200191505060206040518083038186803b1580156121d457600080fd5b505afa1580156121e8573d6000803e3d6000fd5b505050506040513d60208110156121fe57600080fd5b505190508281101561227157604080517f08c379a000000000000000000000000000000000000000000000000000000000815260206004820152601260248201527f496e73756666696369656e7420746f6b656e0000000000000000000000000000604482015290519081900360640190fd5b8015610c5557610c55848383613487565b600082118015612293575060648211155b61229c57600080fd5b60008573ffffffffffffffffffffffffffffffffffffffff166370a08231306040518263ffffffff1660e01b8152600401808273ffffffffffffffffffffffffffffffffffffffff16815260200191505060206040518083038186803b15801561230557600080fd5b505afa158015612319573d6000803e3d6000fd5b505050506040513d602081101561232f57600080fd5b50519050848110156123a257604080517f08c379a000000000000000000000000000000000000000000000000000000000815260206004820152601260248201527f496e73756666696369656e7420746f6b656e0000000000000000000000000000604482015290519081900360640190fd5b8015610bb65760006127106123b78386613454565b816123be57fe5b04905080156123d2576123d2878483613487565b6123df8786838503613487565b50505050505050565b6123f382823361216b565b5050565b60008061240586868561365c565b915091508362ffffff1681830312610bb6576040517f08c379a000000000000000000000000000000000000000000000000000000000815260040161082d90615c46565b6060610b2063219f5d1760e01b6040518060c0016040528085604001358152602001612481866000016020810190610a059190614feb565b815260200161249c866020016020810190610a059190614feb565b815260200185606001358152602001856080013581526020017fffffffffffffffffffffffffffffffffffffffffffffffffffffffffffffffff815250604051602401610a9e9190615cb4565b6000806124f6858461386f565b915091508362ffffff16818303126119e4576040517f08c379a000000000000000000000000000000000000000000000000000000000815260040161082d90615c46565b6123f382333084613af7565b604080517fd505accf000000000000000000000000000000000000000000000000000000008152336004820152306024820152604481018790526064810186905260ff8516608482015260a4810184905260c48101839052905173ffffffffffffffffffffffffffffffffffffffff88169163d505accf9160e480830192600092919082900301818387803b158015610ed557600080fd5b600073ffffffffffffffffffffffffffffffffffffffff8416600114156126075733935061262a565b73ffffffffffffffffffffffffffffffffffffffff84166002141561262a573093505b600080600061263c85600001516133d0565b9194509250905073ffffffffffffffffffffffffffffffffffffffff8083169084161060008061266d868686613cd4565b73ffffffffffffffffffffffffffffffffffffffff1663128acb088b856126938f613d12565b73ffffffffffffffffffffffffffffffffffffffff8e16156126b5578d6126db565b876126d45773fffd8963efd1fc6a506488495d951d5263988d256126db565b6401000276a45b8d6040516020016126ec9190615da6565b6040516020818303038152906040526040518663ffffffff1660e01b815260040161271b959493929190615a84565b6040805180830381600087803b15801561273457600080fd5b505af1158015612748573d6000803e3d6000fd5b505050506040513d601f19601f8201168201806040525081019061276c9190615395565b915091508261277b578161277d565b805b6000039b9a5050505050505050505050565b600073ffffffffffffffffffffffffffffffffffffffff8416600114156127b8573393506127db565b73ffffffffffffffffffffffffffffffffffffffff8416600214156127db573093505b60008060006127ed85600001516133d0565b9194509250905073ffffffffffffffffffffffffffffffffffffffff8084169083161060008061281e858786613cd4565b73ffffffffffffffffffffffffffffffffffffffff1663128acb088b856128448f613d12565b60000373ffffffffffffffffffffffffffffffffffffffff8e1615612869578d61288f565b876128885773fffd8963efd1fc6a506488495d951d5263988d2561288f565b6401000276a45b8d6040516020016128a09190615da6565b6040516020818303038152906040526040518663ffffffff1660e01b81526004016128cf959493929190615a84565b6040805180830381600087803b1580156128e857600080fd5b505af11580156128fc573d6000803e3d6000fd5b505050506040513d601f19601f820116820180604052508101906129209190615395565b9150915060008361293557818360000361293b565b82826000035b909850905073ffffffffffffffffffffffffffffffffffffffff8a16612967578b811461296757600080fd5b50505050505050949350505050565b6040517f70a0823100000000000000000000000000000000000000000000000000000000815260009073ffffffffffffffffffffffffffffffffffffffff8316906370a08231906129cb903090600401615a3c565b60206040518083038186803b1580156129e357600080fd5b505afa1580156129f7573d6000803e3d6000fd5b505050506040513d601f19601f82011682018060405250810190610b2091906157d3565b6040805160008082526020820190925273ffffffffffffffffffffffffffffffffffffffff84169083906040518082805190602001908083835b60208310612a9257805182527fffffffffffffffffffffffffffffffffffffffffffffffffffffffffffffffe09092019160209182019101612a55565b6001836020036101000a03801982511681845116808217855250505050505090500191505060006040518083038185875af1925050503d8060008114612af4576040519150601f19603f3d011682016040523d82523d6000602084013e612af9565b606091505b505090508061146a57604080517f08c379a000000000000000000000000000000000000000000000000000000000815260206004820152600360248201527f5354450000000000000000000000000000000000000000000000000000000000604482015290519081900360640190fd5b6060600282511015612b7a57600080fd5b815167ffffffffffffffff81118015612b9257600080fd5b50604051908082528060200260200182016040528015612bbc578160200160208202803683370190505b5090508281600183510381518110612bd057fe5b602090810291909101015281517fffffffffffffffffffffffffffffffffffffffffffffffffffffffffffffffff015b8015610c4057600080612c3d87866001860381518110612c1c57fe5b6020026020010151878681518110612c3057fe5b6020026020010151613d44565b91509150612c5f848481518110612c5057fe5b60200260200101518383613e2c565b846001850381518110612c6e57fe5b602090810291909101015250507fffffffffffffffffffffffffffffffffffffffffffffffffffffffffffffffff01612c00565b6000806000612cb18585613f02565b604080517fffffffffffffffffffffffffffffffffffffffff000000000000000000000000606094851b811660208084019190915293851b81166034830152825160288184030181526048830184528051908501207fff0000000000000000000000000000000000000000000000000000000000000060688401529a90941b9093166069840152607d8301989098527f96e8ac4277198ff8b6f785478aa9a39f403cb768dd02cbee326c3e7da348845f609d808401919091528851808403909101815260bd909201909752805196019590952095945050505050565b7f000000000000000000000000000000000000000000000000000000000000000073ffffffffffffffffffffffffffffffffffffffff168473ffffffffffffffffffffffffffffffffffffffff16148015612de85750804710155b15612f31577f000000000000000000000000000000000000000000000000000000000000000073ffffffffffffffffffffffffffffffffffffffff1663d0e30db0826040518263ffffffff1660e01b81526004016000604051808303818588803b158015612e5557600080fd5b505af1158015612e69573d6000803e3d6000fd5b50505050507f000000000000000000000000000000000000000000000000000000000000000073ffffffffffffffffffffffffffffffffffffffff1663a9059cbb83836040518363ffffffff1660e01b8152600401808373ffffffffffffffffffffffffffffffffffffffff16815260200182815260200192505050602060405180830381600087803b158015612eff57600080fd5b505af1158015612f13573d6000803e3d6000fd5b505050506040513d6020811015612f2957600080fd5b50610c559050565b73ffffffffffffffffffffffffffffffffffffffff8316301415612f5f57612f5a848383613487565b610c55565b610c5584848484613af7565b60005b600183510381101561146a57600080848381518110612f8957fe5b6020026020010151858460010181518110612fa057fe5b6020026020010151915091506000612fb88383613f02565b5090506000612fe87f00000000000000000000000000000000000000000000000000000000000000008585612ca2565b90506000806000808473ffffffffffffffffffffffffffffffffffffffff16630902f1ac6040518163ffffffff1660e01b815260040160606040518083038186803b15801561303657600080fd5b505afa15801561304a573d6000803e3d6000fd5b505050506040513d601f19601f8201168201806040525081019061306e91906156da565b506dffffffffffffffffffffffffffff1691506dffffffffffffffffffffffffffff1691506000808773ffffffffffffffffffffffffffffffffffffffff168a73ffffffffffffffffffffffffffffffffffffffff16146130d05782846130d3565b83835b91509150613114828b73ffffffffffffffffffffffffffffffffffffffff166370a082318a6040518263ffffffff1660e01b815260040161120c9190615a3c565b9550613121868383613fa7565b9450505050506000808573ffffffffffffffffffffffffffffffffffffffff168873ffffffffffffffffffffffffffffffffffffffff161461316557826000613169565b6000835b91509150600060028c51038a10613180578a6131c1565b6131c17f0000000000000000000000000000000000000000000000000000000000000000898e8d600201815181106131b457fe5b6020026020010151612ca2565b604080516000815260208101918290527f022c0d9f0000000000000000000000000000000000000000000000000000000090915290915073ffffffffffffffffffffffffffffffffffffffff87169063022c0d9f906132299086908690869060248101615e06565b600060405180830381600087803b15801561324357600080fd5b505af1158015613257573d6000803e3d6000fd5b50506001909b019a50612f6e9950505050505050505050565b8082038281111561216557600080fd5b60008060008473ffffffffffffffffffffffffffffffffffffffff1663095ea7b360e01b7f0000000000000000000000000000000000000000000000000000000000000000866040516024016132d7929190615ad6565b604080517fffffffffffffffffffffffffffffffffffffffffffffffffffffffffffffffe08184030181529181526020820180517bffffffffffffffffffffffffffffffffffffffffffffffffffffffff167fffffffff000000000000000000000000000000000000000000000000000000009094169390931790925290516133609190615a20565b6000604051808303816000865af19150503d806000811461339d576040519150601f19603f3d011682016040523d82523d6000602084013e6133a2565b606091505b5091509150818015610e2c575080511580610e2c575080806020019051810190610e2c919061528d565b4290565b600080806133de848261407d565b92506133eb84601461417d565b90506133f884601761407d565b91509193909250565b6000610e2c8561341286868661426d565b6142ea565b516042111590565b8051606090610b209083906017907fffffffffffffffffffffffffffffffffffffffffffffffffffffffffffffffe90161431a565b600082158061346f5750508181028183828161346c57fe5b04145b61216557600080fd5b6060610b20826000602b61431a565b6040805173ffffffffffffffffffffffffffffffffffffffff8481166024830152604480830185905283518084039091018152606490920183526020820180517bffffffffffffffffffffffffffffffffffffffffffffffffffffffff167fa9059cbb000000000000000000000000000000000000000000000000000000001781529251825160009485949389169392918291908083835b6020831061355c57805182527fffffffffffffffffffffffffffffffffffffffffffffffffffffffffffffffe0909201916020918201910161351f565b6001836020036101000a0380198251168184511680821785525050505050509050019150506000604051808303816000865af19150503d80600081146135be576040519150601f19603f3d011682016040523d82523d6000602084013e6135c3565b606091505b50915091508180156135f15750805115806135f157508080602001905160208110156135ee57600080fd5b50515b6119e457604080517f08c379a000000000000000000000000000000000000000000000000000000000815260206004820152600260248201527f5354000000000000000000000000000000000000000000000000000000000000604482015290519081900360640190fd5b600080835185511461366d57600080fd5b6000855167ffffffffffffffff8111801561368757600080fd5b506040519080825280602002602001820160405280156136c157816020015b6136ae614e34565b8152602001906001900390816136a65790505b5090506000865167ffffffffffffffff811180156136de57600080fd5b5060405190808252806020026020018201604052801561371857816020015b613705614e34565b8152602001906001900390816136fd5790505b50905060005b8751811015613848576000806137478a848151811061373957fe5b60200260200101518961386f565b9150915061375482614501565b85848151811061376057fe5b60200260200101516000019060020b908160020b8152505061378181614501565b84848151811061378d57fe5b60200260200101516000019060020b908160020b815250508883815181106137b157fe5b60200260200101518584815181106137c557fe5b6020026020010151602001906fffffffffffffffffffffffffffffffff1690816fffffffffffffffffffffffffffffffff168152505088838151811061380757fe5b602002602001015184848151811061381b57fe5b6020908102919091018101516fffffffffffffffffffffffffffffffff909216910152505060010161371e565b5061385282614512565b60020b935061386081614512565b60020b92505050935093915050565b60008060008061387e866145fa565b90506000805b82811015613a9c57600080600061389a8b6133d0565b92509250925060006138ad848484613cd4565b905060008063ffffffff8d166138d6576138c683614625565b600291820b9350900b9050613978565b6138e0838e6148bd565b8160020b915050809250508273ffffffffffffffffffffffffffffffffffffffff16633850c7bd6040518163ffffffff1660e01b815260040160e06040518083038186803b15801561393157600080fd5b505afa158015613945573d6000803e3d6000fd5b505050506040513d601f19601f820116820180604052508101906139699190615715565b50505060029290920b93505050505b600189038714156139b9578473ffffffffffffffffffffffffffffffffffffffff168673ffffffffffffffffffffffffffffffffffffffff161099506139c8565b6139c28e61341f565b9d508597505b6000871580613a6957508673ffffffffffffffffffffffffffffffffffffffff168973ffffffffffffffffffffffffffffffffffffffff1610613a39578673ffffffffffffffffffffffffffffffffffffffff168673ffffffffffffffffffffffffffffffffffffffff1610613a69565b8573ffffffffffffffffffffffffffffffffffffffff168773ffffffffffffffffffffffffffffffffffffffff16105b90508015613a7e579b82019b9a81019a613a89565b828d039c50818c039b505b5050600190950194506138849350505050565b5082613aed577fffffffffffffffffffffffffffffffffffffffffffffffffffffffffffffffff850294507fffffffffffffffffffffffffffffffffffffffffffffffffffffffffffffffff840293505b5050509250929050565b6040805173ffffffffffffffffffffffffffffffffffffffff85811660248301528481166044830152606480830185905283518084039091018152608490920183526020820180517bffffffffffffffffffffffffffffffffffffffffffffffffffffffff167f23b872dd00000000000000000000000000000000000000000000000000000000178152925182516000948594938a169392918291908083835b60208310613bd457805182527fffffffffffffffffffffffffffffffffffffffffffffffffffffffffffffffe09092019160209182019101613b97565b6001836020036101000a0380198251168184511680821785525050505050509050019150506000604051808303816000865af19150503d8060008114613c36576040519150601f19603f3d011682016040523d82523d6000602084013e613c3b565b606091505b5091509150818015613c69575080511580613c695750808060200190516020811015613c6657600080fd5b50515b610bb657604080517f08c379a000000000000000000000000000000000000000000000000000000000815260206004820152600360248201527f5354460000000000000000000000000000000000000000000000000000000000604482015290519081900360640190fd5b6000613d0a7f0000000000000000000000000000000000000000000000000000000000000000613d0586868661426d565b614cee565b949350505050565b60007f80000000000000000000000000000000000000000000000000000000000000008210613d4057600080fd5b5090565b6000806000613d538585613f02565b509050600080613d64888888612ca2565b73ffffffffffffffffffffffffffffffffffffffff16630902f1ac6040518163ffffffff1660e01b815260040160606040518083038186803b158015613da957600080fd5b505afa158015613dbd573d6000803e3d6000fd5b505050506040513d6060811015613dd357600080fd5b5080516020909101516dffffffffffffffffffffffffffff918216935016905073ffffffffffffffffffffffffffffffffffffffff87811690841614613e1a578082613e1d565b81815b90999098509650505050505050565b6000808411613e9c57604080517f08c379a000000000000000000000000000000000000000000000000000000000815260206004820152601a60248201527f494e53554646494349454e545f4f55545055545f414d4f554e54000000000000604482015290519081900360640190fd5b600083118015613eac5750600082115b613eb557600080fd5b6000613ecd6103e8613ec78688613454565b90613454565b90506000613ee16103e5613ec78689613270565b9050613ef86001828481613ef157fe5b0490614e24565b9695505050505050565b6000808273ffffffffffffffffffffffffffffffffffffffff168473ffffffffffffffffffffffffffffffffffffffff161415613f3e57600080fd5b8273ffffffffffffffffffffffffffffffffffffffff168473ffffffffffffffffffffffffffffffffffffffff1610613f78578284613f7b565b83835b909250905073ffffffffffffffffffffffffffffffffffffffff8216613fa057600080fd5b9250929050565b600080841161401757604080517f08c379a000000000000000000000000000000000000000000000000000000000815260206004820152601960248201527f494e53554646494349454e545f494e5055545f414d4f554e5400000000000000604482015290519081900360640190fd5b6000831180156140275750600082115b61403057600080fd5b600061403e856103e5613454565b9050600061404c8285613454565b9050600061406683614060886103e8613454565b90614e24565b905080828161407157fe5b04979650505050505050565b6000818260140110156140f157604080517f08c379a000000000000000000000000000000000000000000000000000000000815260206004820152601260248201527f746f416464726573735f6f766572666c6f770000000000000000000000000000604482015290519081900360640190fd5b816014018351101561416457604080517f08c379a000000000000000000000000000000000000000000000000000000000815260206004820152601560248201527f746f416464726573735f6f75744f66426f756e64730000000000000000000000604482015290519081900360640190fd5b5001602001516c01000000000000000000000000900490565b6000818260030110156141f157604080517f08c379a000000000000000000000000000000000000000000000000000000000815260206004820152601160248201527f746f55696e7432345f6f766572666c6f77000000000000000000000000000000604482015290519081900360640190fd5b816003018351101561426457604080517f08c379a000000000000000000000000000000000000000000000000000000000815260206004820152601460248201527f746f55696e7432345f6f75744f66426f756e6473000000000000000000000000604482015290519081900360640190fd5b50016003015190565b614275614e4b565b8273ffffffffffffffffffffffffffffffffffffffff168473ffffffffffffffffffffffffffffffffffffffff1611156142ad579192915b506040805160608101825273ffffffffffffffffffffffffffffffffffffffff948516815292909316602083015262ffffff169181019190915290565b60006142f68383614cee565b90503373ffffffffffffffffffffffffffffffffffffffff82161461216557600080fd5b60608182601f01101561438e57604080517f08c379a000000000000000000000000000000000000000000000000000000000815260206004820152600e60248201527f736c6963655f6f766572666c6f77000000000000000000000000000000000000604482015290519081900360640190fd5b8282840110156143ff57604080517f08c379a000000000000000000000000000000000000000000000000000000000815260206004820152600e60248201527f736c6963655f6f766572666c6f77000000000000000000000000000000000000604482015290519081900360640190fd5b8183018451101561447157604080517f08c379a000000000000000000000000000000000000000000000000000000000815260206004820152601160248201527f736c6963655f6f75744f66426f756e6473000000000000000000000000000000604482015290519081900360640190fd5b60608215801561449057604051915060008252602082016040526144f8565b6040519150601f8416801560200281840101858101878315602002848b0101015b818310156144c95780518352602092830192016144b1565b5050858452601f017fffffffffffffffffffffffffffffffffffffffffffffffffffffffffffffffe016604052505b50949350505050565b80600281900b8114610b2357600080fd5b6000806000805b84518110156145a75784818151811061452e57fe5b6020026020010151602001516fffffffffffffffffffffffffffffffff1685828151811061455857fe5b60200260200101516000015160020b028301925084818151811061457857fe5b6020026020010151602001516fffffffffffffffffffffffffffffffff16820191508080600101915050614519565b508082816145b157fe5b0592506000821280156145cc57508082816145c857fe5b0715155b15611ed25750507fffffffffffffffffffffffffffffffffffffffffffffffffffffffffffffffff01919050565b5160177fffffffffffffffffffffffffffffffffffffffffffffffffffffffffffffffec9091010490565b6000806000808473ffffffffffffffffffffffffffffffffffffffff16633850c7bd6040518163ffffffff1660e01b815260040160e06040518083038186803b15801561467157600080fd5b505afa158015614685573d6000803e3d6000fd5b505050506040513d601f19601f820116820180604052508101906146a99190615715565b50939750919550935050600161ffff84161191506146f59050576040517f08c379a000000000000000000000000000000000000000000000000000000000815260040161082d90615bd8565b6000808673ffffffffffffffffffffffffffffffffffffffff1663252c09d7856040518263ffffffff1660e01b81526004016147319190615dee565b60806040518083038186803b15801561474957600080fd5b505afa15801561475d573d6000803e3d6000fd5b505050506040513d601f19601f8201168201806040525081019061478191906158e0565b50509150915061478f6133cc565b63ffffffff168263ffffffff16146147a9578495506148b4565b60008361ffff1660018561ffff168761ffff160103816147c557fe5b06905060008060008a73ffffffffffffffffffffffffffffffffffffffff1663252c09d7856040518263ffffffff1660e01b81526004016148069190615dfd565b60806040518083038186803b15801561481e57600080fd5b505afa158015614832573d6000803e3d6000fd5b505050506040513d601f19601f8201168201806040525081019061485691906158e0565b9350509250925080614894576040517f08c379a000000000000000000000000000000000000000000000000000000000815260040161082d90615ba1565b82860363ffffffff811683870360060b816148ab57fe5b059a5050505050505b50505050915091565b60008063ffffffff831661493257604080517f08c379a000000000000000000000000000000000000000000000000000000000815260206004820152600260248201527f4250000000000000000000000000000000000000000000000000000000000000604482015290519081900360640190fd5b604080516002808252606082018352600092602083019080368337019050509050838160008151811061496157fe5b602002602001019063ffffffff16908163ffffffff168152505060008160018151811061498a57fe5b63ffffffff9092166020928302919091018201526040517f883bdbfd00000000000000000000000000000000000000000000000000000000815260048101828152835160248301528351600093849373ffffffffffffffffffffffffffffffffffffffff8b169363883bdbfd9388939192839260449091019185820191028083838b5b83811015614a25578181015183820152602001614a0d565b505050509050019250505060006040518083038186803b158015614a4857600080fd5b505afa158015614a5c573d6000803e3d6000fd5b505050506040513d6000823e601f3d9081017fffffffffffffffffffffffffffffffffffffffffffffffffffffffffffffffe01682016040908152811015614aa357600080fd5b8101908080516040519392919084640100000000821115614ac357600080fd5b908301906020820185811115614ad857600080fd5b8251866020820283011164010000000082111715614af557600080fd5b82525081516020918201928201910280838360005b83811015614b22578181015183820152602001614b0a565b5050505090500160405260200180516040519392919084640100000000821115614b4b57600080fd5b908301906020820185811115614b6057600080fd5b8251866020820283011164010000000082111715614b7d57600080fd5b82525081516020918201928201910280838360005b83811015614baa578181015183820152602001614b92565b5050505090500160405250505091509150600082600081518110614bca57fe5b602002602001015183600181518110614bdf57fe5b6020026020010151039050600082600081518110614bf957fe5b602002602001015183600181518110614c0e57fe5b60200260200101510390508763ffffffff168260060b81614c2b57fe5b05965060008260060b128015614c5557508763ffffffff168260060b81614c4e57fe5b0760060b15155b15614c80577fffffffffffffffffffffffffffffffffffffffffffffffffffffffffffffffff909601955b63ffffffff881673ffffffffffffffffffffffffffffffffffffffff0277ffffffffffffffffffffffffffffffffffffffff00000000602083901b1677ffffffffffffffffffffffffffffffffffffffffffffffff821681614cde57fe5b0496505050505050509250929050565b6000816020015173ffffffffffffffffffffffffffffffffffffffff16826000015173ffffffffffffffffffffffffffffffffffffffff1610614d3057600080fd5b508051602080830151604093840151845173ffffffffffffffffffffffffffffffffffffffff94851681850152939091168385015262ffffff166060808401919091528351808403820181526080840185528051908301207fff0000000000000000000000000000000000000000000000000000000000000060a085015294901b7fffffffffffffffffffffffffffffffffffffffff0000000000000000000000001660a183015260b58201939093527f5f77a2e6e9e09fd14bae12229869da91c1843cfd43d8bda95b61c67b0d14937360d5808301919091528251808303909101815260f5909101909152805191012090565b8082018281101561216557600080fd5b604080518082019091526000808252602082015290565b604080516060810182526000808252602082018190529181019190915290565b8035610b2381615f52565b60008083601f840112614e87578182fd5b50813567ffffffffffffffff811115614e9e578182fd5b6020830191508360208083028501011115613fa057600080fd5b600082601f830112614ec8578081fd5b81356020614edd614ed883615ec8565b615ea4565b8281528181019085830183850287018401881015614ef9578586fd5b855b85811015614f345781356fffffffffffffffffffffffffffffffff81168114614f22578788fd5b84529284019290840190600101614efb565b5090979650505050505050565b80518015158114610b2357600080fd5b600082601f830112614f61578081fd5b8135614f6f614ed882615ee6565b818152846020838601011115614f83578283fd5b816020850160208301379081016020019190915292915050565b80516dffffffffffffffffffffffffffff81168114610b2357600080fd5b805161ffff81168114610b2357600080fd5b803562ffffff81168114610b2357600080fd5b8035610b2381615f83565b600060208284031215614ffc578081fd5b813561500781615f52565b9392505050565b60008060408385031215615020578081fd5b823561502b81615f52565b946020939093013593505050565b60008060006060848603121561504d578081fd5b833561505881615f52565b925060208401359150604084013561506f81615f52565b809150509250925092565b600080600080600060a08688031215615091578283fd5b853561509c81615f52565b94506020860135935060408601356150b381615f52565b92506060860135915060808601356150ca81615f52565b809150509295509295909350565b600080600080608085870312156150ed578182fd5b84356150f881615f52565b93506020850135925060408501359150606085013561511681615f52565b939692955090935050565b60008060008060008060c08789031215615139578384fd5b863561514481615f52565b95506020870135945060408701359350606087013561516281615f95565b9598949750929560808101359460a0909101359350915050565b6000806020838503121561518e578182fd5b823567ffffffffffffffff8111156151a4578283fd5b6151b085828601614e76565b90969095509350505050565b600080600080608085870312156151d1578182fd5b843567ffffffffffffffff808211156151e8578384fd5b818701915087601f8301126151fb578384fd5b8135602061520b614ed883615ec8565b82815281810190858301885b858110156152405761522e8e8684358b0101614f51565b84529284019290840190600101615217565b50909950505088013592505080821115615258578384fd5b5061526587828801614eb8565b93505061527460408601614fcd565b915061528260608601614fe0565b905092959194509250565b60006020828403121561529e578081fd5b61500782614f41565b6000806000604084860312156152bb578081fd5b83359250602084013567ffffffffffffffff8111156152d8578182fd5b6152e486828701614e76565b9497909650939450505050565b600060208284031215615302578081fd5b813567ffffffffffffffff811115615318578182fd5b613d0a84828501614f51565b600080600060608486031215615338578081fd5b833567ffffffffffffffff81111561534e578182fd5b61535a86828701614f51565b93505061536960208501614fcd565b9150604084013561506f81615f83565b60006020828403121561538a578081fd5b813561500781615f74565b600080604083850312156153a7578182fd5b505080516020909101519092909150565b600080600080606085870312156153cd578182fd5b8435935060208501359250604085013567ffffffffffffffff808211156153f2578384fd5b818701915087601f830112615405578384fd5b813581811115615413578485fd5b886020828501011115615424578485fd5b95989497505060200194505050565b600060208284031215615444578081fd5b815167ffffffffffffffff81111561545a578182fd5b8201601f8101841361546a578182fd5b8051615478614ed882615ee6565b81815285602083850101111561548c578384fd5b610e2c826020830160208601615f26565b6000602082840312156154ae578081fd5b813567ffffffffffffffff808211156154c5578283fd5b90830190608082860312156154d8578283fd5b6040516080810181811083821117156154ed57fe5b6040528235828111156154fe578485fd5b61550a87828601614f51565b8252506020830135915061551d82615f52565b816020820152604083013560408201526060830135606082015280935050505092915050565b600060e08284031215615554578081fd5b60405160e0810181811067ffffffffffffffff8211171561557157fe5b60405261557d83614e6b565b815261558b60208401614e6b565b602082015261559c60408401614fcd565b60408201526155ad60608401614e6b565b60608201526080830135608082015260a083013560a08201526155d260c08401614e6b565b60c08201529392505050565b6000602082840312156155ef578081fd5b813567ffffffffffffffff811115615605578182fd5b820160808185031215615007578182fd5b600060e08284031215610836578081fd5b600060a08284031215610836578081fd5b60006101008284031215610836578081fd5b60006020828403121561565b578081fd5b813567ffffffffffffffff80821115615672578283fd5b9083019060408286031215615685578283fd5b60405160408101818110838211171561569a57fe5b6040528235828111156156ab578485fd5b6156b787828601614f51565b825250602083013592506156ca83615f52565b6020810192909252509392505050565b6000806000606084860312156156ee578081fd5b6156f784614f9d565b925061570560208501614f9d565b9150604084015161506f81615f83565b600080600080600080600060e0888a03121561572f578485fd5b875161573a81615f52565b602089015190975061574b81615f74565b955061575960408901614fbb565b945061576760608901614fbb565b935061577560808901614fbb565b925060a088015161578581615f95565b915061579360c08901614f41565b905092959891949750929550565b6000602082840312156157b2578081fd5b61500782614fcd565b6000602082840312156157cc578081fd5b5035919050565b6000602082840312156157e4578081fd5b5051919050565b600080604083850312156157fd578182fd5b82359150602083013561580f81615f52565b809150509250929050565b6000806000806080858703121561582f578182fd5b84359350602085013561584181615f52565b925060408501359150606085013561511681615f52565b60008060006060848603121561586c578081fd5b8335925060208401359150604084013561506f81615f52565b60008060008060006080868803121561589c578283fd5b8535945060208601359350604086013567ffffffffffffffff8111156158c0578384fd5b6158cc88828901614e76565b90945092505060608601356150ca81615f52565b600080600080608085870312156158f5578182fd5b845161590081615f83565b8094505060208501518060060b8114615917578283fd5b604086015190935061592881615f52565b915061528260608601614f41565b73ffffffffffffffffffffffffffffffffffffffff169052565b60008151808452615968816020860160208601615f26565b601f017fffffffffffffffffffffffffffffffffffffffffffffffffffffffffffffffe0169290920160200192915050565b60020b9052565b62ffffff169052565b606093841b7fffffffffffffffffffffffffffffffffffffffff000000000000000000000000908116825260e89390931b7fffffff0000000000000000000000000000000000000000000000000000000000166014820152921b166017820152602b0190565b6000828483379101908152919050565b60008251615a32818460208701615f26565b9190910192915050565b73ffffffffffffffffffffffffffffffffffffffff91909116815260200190565b73ffffffffffffffffffffffffffffffffffffffff92831681529116602082015260400190565b600073ffffffffffffffffffffffffffffffffffffffff8088168352861515602084015285604084015280851660608401525060a06080830152615acb60a0830184615950565b979650505050505050565b73ffffffffffffffffffffffffffffffffffffffff929092168252602082015260400190565b6000602080830181845280855180835260408601915060408482028701019250838701855b82811015615b6d577fffffffffffffffffffffffffffffffffffffffffffffffffffffffffffffffc0888603018452615b5b858351615950565b94509285019290850190600101615b21565b5092979650505050505050565b6000602082526150076020830184615950565b6020810160058310615b9b57fe5b91905290565b60208082526003908201527f4f4e490000000000000000000000000000000000000000000000000000000000604082015260600190565b60208082526003908201527f4e454f0000000000000000000000000000000000000000000000000000000000604082015260600190565b60208082526012908201527f546f6f206d756368207265717565737465640000000000000000000000000000604082015260600190565b60208082526002908201527f5444000000000000000000000000000000000000000000000000000000000000604082015260600190565b60208082526013908201527f546f6f206c6974746c6520726563656976656400000000000000000000000000604082015260600190565b600060c082019050825182526020830151602083015260408301516040830152606083015160608301526080830151608083015260a083015160a083015292915050565b600061016082019050615d0c828451615936565b6020830151615d1e6020840182615936565b506040830151615d3160408401826159a1565b506060830151615d44606084018261599a565b506080830151615d57608084018261599a565b5060a083015160a083015260c083015160c083015260e083015160e083015261010080840151818401525061012080840151615d9582850182615936565b505061014092830151919092015290565b600060208252825160406020840152615dc26060840182615950565b905073ffffffffffffffffffffffffffffffffffffffff60208501511660408401528091505092915050565b61ffff91909116815260200190565b90815260200190565b600085825284602083015273ffffffffffffffffffffffffffffffffffffffff8416604083015260806060830152613ef86080830184615950565b60008083357fffffffffffffffffffffffffffffffffffffffffffffffffffffffffffffffe1843603018112615e75578283fd5b83018035915067ffffffffffffffff821115615e8f578283fd5b602001915036819003821315613fa057600080fd5b60405181810167ffffffffffffffff81118282101715615ec057fe5b604052919050565b600067ffffffffffffffff821115615edc57fe5b5060209081020190565b600067ffffffffffffffff821115615efa57fe5b50601f017fffffffffffffffffffffffffffffffffffffffffffffffffffffffffffffffe01660200190565b60005b83811015615f41578181015183820152602001615f29565b83811115610c555750506000910152565b73ffffffffffffffffffffffffffffffffffffffff8116811461147957600080fd5b8060020b811461147957600080fd5b63ffffffff8116811461147957600080fd5b60ff8116811461147957600080fdfea164736f6c6343000706000a",
  "devdoc": {
    "kind": "dev",
    "methods": {
      "approveMax(address)": {
        "params": {
          "token": "The token to approve"
        }
      },
      "approveMaxMinusOne(address)": {
        "params": {
          "token": "The token to approve"
        }
      },
      "approveZeroThenMax(address)": {
        "params": {
          "token": "The token to approve"
        }
      },
      "approveZeroThenMaxMinusOne(address)": {
        "params": {
          "token": "The token to approve"
        }
      },
      "callPositionManager(bytes)": {
        "params": {
          "data": "Calldata to pass along to the position manager"
        },
        "returns": {
          "result": "The result from the call"
        }
      },
      "checkOracleSlippage(bytes,uint24,uint32)": {
        "params": {
          "maximumTickDivergence": "The maximum number of ticks that the price can degrade by",
          "path": "The path to fetch prices over",
          "secondsAgo": "The number of seconds ago to compute oracle prices against"
        }
      },
      "checkOracleSlippage(bytes[],uint128[],uint24,uint32)": {
        "params": {
          "amounts": "The weights for each entry in `paths`",
          "maximumTickDivergence": "The maximum number of ticks that the price can degrade by",
          "paths": "The paths to fetch prices over",
          "secondsAgo": "The number of seconds ago to compute oracle prices against"
        }
      },
      "exactInput((bytes,address,uint256,uint256))": {
        "details": "Setting `amountIn` to 0 will cause the contract to look up its own balance, and swap the entire amount, enabling contracts to send tokens before calling this function.",
        "params": {
          "params": "The parameters necessary for the multi-hop swap, encoded as `ExactInputParams` in calldata"
        },
        "returns": {
          "amountOut": "The amount of the received token"
        }
      },
      "exactInputSingle((address,address,uint24,address,uint256,uint256,uint160))": {
        "details": "Setting `amountIn` to 0 will cause the contract to look up its own balance, and swap the entire amount, enabling contracts to send tokens before calling this function.",
        "params": {
          "params": "The parameters necessary for the swap, encoded as `ExactInputSingleParams` in calldata"
        },
        "returns": {
          "amountOut": "The amount of the received token"
        }
      },
      "exactOutput((bytes,address,uint256,uint256))": {
        "params": {
          "params": "The parameters necessary for the multi-hop swap, encoded as `ExactOutputParams` in calldata"
        },
        "returns": {
          "amountIn": "The amount of the input token"
        }
      },
      "exactOutputSingle((address,address,uint24,address,uint256,uint256,uint160))": {
        "params": {
          "params": "The parameters necessary for the swap, encoded as `ExactOutputSingleParams` in calldata"
        },
        "returns": {
          "amountIn": "The amount of the input token"
        }
      },
      "getApprovalType(address,uint256)": {
        "details": "Lens to be called off-chain to determine which (if any) of the relevant approval functions should be called",
        "params": {
          "amount": "The amount to approve",
          "token": "The token to approve"
        },
        "returns": {
          "_0": "The required approval type"
        }
      },
      "increaseLiquidity((address,address,uint256,uint256,uint256))": {
        "params": {
          "params": "Calldata to pass along to the position manager"
        },
        "returns": {
          "result": "The result from the call"
        }
      },
      "mint((address,address,uint24,int24,int24,uint256,uint256,address))": {
        "params": {
          "params": "Calldata to pass along to the position manager"
        },
        "returns": {
          "result": "The result from the call"
        }
      },
      "multicall(bytes32,bytes[])": {
        "details": "The `msg.value` should not be trusted for any method callable from multicall.",
        "params": {
          "data": "The encoded function data for each of the calls to make to this contract",
          "previousBlockhash": "The expected parent blockHash"
        },
        "returns": {
          "_0": "The results from each of the calls passed in via data"
        }
      },
      "multicall(bytes[])": {
        "details": "The `msg.value` should not be trusted for any method callable from multicall.",
        "params": {
          "data": "The encoded function data for each of the calls to make to this contract"
        },
        "returns": {
          "results": "The results from each of the calls passed in via data"
        }
      },
      "multicall(uint256,bytes[])": {
        "details": "The `msg.value` should not be trusted for any method callable from multicall.",
        "params": {
          "data": "The encoded function data for each of the calls to make to this contract",
          "deadline": "The time by which this function must be called before failing"
        },
        "returns": {
          "_0": "The results from each of the calls passed in via data"
        }
      },
      "pull(address,uint256)": {
        "params": {
          "token": "The token to pull",
          "value": "The amount to pay"
        }
      },
      "refundETH()": {
        "details": "Useful for bundling with mint or increase liquidity that uses ether, or exact output swaps that use ether for the input amount"
      },
      "selfPermit(address,uint256,uint256,uint8,bytes32,bytes32)": {
        "details": "The `owner` is always msg.sender and the `spender` is always address(this).",
        "params": {
          "deadline": "A timestamp, the current blocktime must be less than or equal to this timestamp",
          "r": "Must produce valid secp256k1 signature from the holder along with `v` and `s`",
          "s": "Must produce valid secp256k1 signature from the holder along with `r` and `v`",
          "token": "The address of the token spent",
          "v": "Must produce valid secp256k1 signature from the holder along with `r` and `s`",
          "value": "The amount that can be spent of token"
        }
      },
      "selfPermitAllowed(address,uint256,uint256,uint8,bytes32,bytes32)": {
        "details": "The `owner` is always msg.sender and the `spender` is always address(this)",
        "params": {
          "expiry": "The timestamp at which the permit is no longer valid",
          "nonce": "The current nonce of the owner",
          "r": "Must produce valid secp256k1 signature from the holder along with `v` and `s`",
          "s": "Must produce valid secp256k1 signature from the holder along with `r` and `v`",
          "token": "The address of the token spent",
          "v": "Must produce valid secp256k1 signature from the holder along with `r` and `s`"
        }
      },
      "selfPermitAllowedIfNecessary(address,uint256,uint256,uint8,bytes32,bytes32)": {
        "details": "The `owner` is always msg.sender and the `spender` is always address(this) Can be used instead of #selfPermitAllowed to prevent calls from failing due to a frontrun of a call to #selfPermitAllowed.",
        "params": {
          "expiry": "The timestamp at which the permit is no longer valid",
          "nonce": "The current nonce of the owner",
          "r": "Must produce valid secp256k1 signature from the holder along with `v` and `s`",
          "s": "Must produce valid secp256k1 signature from the holder along with `r` and `v`",
          "token": "The address of the token spent",
          "v": "Must produce valid secp256k1 signature from the holder along with `r` and `s`"
        }
      },
      "selfPermitIfNecessary(address,uint256,uint256,uint8,bytes32,bytes32)": {
        "details": "The `owner` is always msg.sender and the `spender` is always address(this). Can be used instead of #selfPermit to prevent calls from failing due to a frontrun of a call to #selfPermit",
        "params": {
          "deadline": "A timestamp, the current blocktime must be less than or equal to this timestamp",
          "r": "Must produce valid secp256k1 signature from the holder along with `v` and `s`",
          "s": "Must produce valid secp256k1 signature from the holder along with `r` and `v`",
          "token": "The address of the token spent",
          "v": "Must produce valid secp256k1 signature from the holder along with `r` and `s`",
          "value": "The amount that can be spent of token"
        }
      },
      "swapExactTokensForTokens(uint256,uint256,address[],address)": {
        "details": "Setting `amountIn` to 0 will cause the contract to look up its own balance, and swap the entire amount, enabling contracts to send tokens before calling this function.",
        "params": {
          "amountIn": "The amount of token to swap",
          "amountOutMin": "The minimum amount of output that must be received",
          "path": "The ordered list of tokens to swap through",
          "to": "The recipient address"
        },
        "returns": {
          "amountOut": "The amount of the received token"
        }
      },
      "swapTokensForExactTokens(uint256,uint256,address[],address)": {
        "params": {
          "amountInMax": "The maximum amount of input that the caller will pay",
          "amountOut": "The amount of token to swap for",
          "path": "The ordered list of tokens to swap through",
          "to": "The recipient address"
        },
        "returns": {
          "amountIn": "The amount of token to pay"
        }
      },
      "sweepToken(address,uint256)": {
        "details": "The amountMinimum parameter prevents malicious contracts from stealing the token from users",
        "params": {
          "amountMinimum": "The minimum amount of token required for a transfer",
          "token": "The contract address of the token which will be transferred to msg.sender"
        }
      },
      "sweepToken(address,uint256,address)": {
        "details": "The amountMinimum parameter prevents malicious contracts from stealing the token from users",
        "params": {
          "amountMinimum": "The minimum amount of token required for a transfer",
          "recipient": "The destination address of the token",
          "token": "The contract address of the token which will be transferred to `recipient`"
        }
      },
      "sweepTokenWithFee(address,uint256,address,uint256,address)": {
        "details": "The amountMinimum parameter prevents malicious contracts from stealing the token from users"
      },
      "sweepTokenWithFee(address,uint256,uint256,address)": {
        "details": "The amountMinimum parameter prevents malicious contracts from stealing the token from users"
      },
      "unwrapWETH9(uint256)": {
        "details": "The amountMinimum parameter prevents malicious contracts from stealing WETH9 from users.",
        "params": {
          "amountMinimum": "The minimum amount of WETH9 to unwrap"
        }
      },
      "unwrapWETH9(uint256,address)": {
        "details": "The amountMinimum parameter prevents malicious contracts from stealing WETH9 from users.",
        "params": {
          "amountMinimum": "The minimum amount of WETH9 to unwrap",
          "recipient": "The address receiving ETH"
        }
      },
      "unwrapWETH9WithFee(uint256,address,uint256,address)": {
        "details": "The amountMinimum parameter prevents malicious contracts from stealing WETH9 from users."
      },
      "unwrapWETH9WithFee(uint256,uint256,address)": {
        "details": "The amountMinimum parameter prevents malicious contracts from stealing WETH9 from users."
      },
      "wrapETH(uint256)": {
        "details": "The resulting WETH9 is custodied by the router, thus will require further distribution",
        "params": {
          "value": "The amount of ETH to wrap"
        }
      },
      "yumyumswapSwapCallback(int256,int256,bytes)": {
        "details": "In the implementation you must pay the pool tokens owed for the swap. The caller of this method must be checked to be a YumyumSwapPool deployed by the canonical YumyumSwapFactory. amount0Delta and amount1Delta can both be 0 if no tokens were swapped.",
        "params": {
          "amount0Delta": "The amount of token0 that was sent (negative) or must be received (positive) by the pool by the end of the swap. If positive, the callback must send that amount of token0 to the pool.",
          "amount1Delta": "The amount of token1 that was sent (negative) or must be received (positive) by the pool by the end of the swap. If positive, the callback must send that amount of token1 to the pool.",
          "data": "Any data passed through by the caller via the IYumyumSwapPoolActions#swap call"
        }
      }
    },
    "title": "Uniswap V2 and V3 Swap Router",
    "version": 1
  },
  "userdoc": {
    "kind": "user",
    "methods": {
      "approveMax(address)": {
        "notice": "Approves a token for the maximum possible amount"
      },
      "approveMaxMinusOne(address)": {
        "notice": "Approves a token for the maximum possible amount minus one"
      },
      "approveZeroThenMax(address)": {
        "notice": "Approves a token for zero, then the maximum possible amount"
      },
      "approveZeroThenMaxMinusOne(address)": {
        "notice": "Approves a token for zero, then the maximum possible amount minus one"
      },
      "callPositionManager(bytes)": {
        "notice": "Calls the position manager with arbitrary calldata"
      },
      "checkOracleSlippage(bytes,uint24,uint32)": {
        "notice": "Ensures that the current (synthetic) tick over the path is no worse than `maximumTickDivergence` ticks away from the average as of `secondsAgo`"
      },
      "checkOracleSlippage(bytes[],uint128[],uint24,uint32)": {
        "notice": "Ensures that the weighted average current (synthetic) tick over the path is no worse than `maximumTickDivergence` ticks away from the average as of `secondsAgo`"
      },
      "exactInput((bytes,address,uint256,uint256))": {
        "notice": "Swaps `amountIn` of one token for as much as possible of another along the specified path"
      },
      "exactInputSingle((address,address,uint24,address,uint256,uint256,uint160))": {
        "notice": "Swaps `amountIn` of one token for as much as possible of another token"
      },
      "exactOutput((bytes,address,uint256,uint256))": {
        "notice": "Swaps as little as possible of one token for `amountOut` of another along the specified path (reversed) that may remain in the router after the swap."
      },
      "exactOutputSingle((address,address,uint24,address,uint256,uint256,uint160))": {
        "notice": "Swaps as little as possible of one token for `amountOut` of another token that may remain in the router after the swap."
      },
      "increaseLiquidity((address,address,uint256,uint256,uint256))": {
        "notice": "Calls the position manager's increaseLiquidity function"
      },
      "mint((address,address,uint24,int24,int24,uint256,uint256,address))": {
        "notice": "Calls the position manager's mint function"
      },
      "multicall(bytes32,bytes[])": {
        "notice": "Call multiple functions in the current contract and return the data from all of them if they all succeed"
      },
      "multicall(bytes[])": {
        "notice": "Call multiple functions in the current contract and return the data from all of them if they all succeed"
      },
      "multicall(uint256,bytes[])": {
        "notice": "Call multiple functions in the current contract and return the data from all of them if they all succeed"
      },
      "pull(address,uint256)": {
        "notice": "Transfers the specified amount of a token from the msg.sender to address(this)"
      },
      "refundETH()": {
        "notice": "Refunds any ETH balance held by this contract to the `msg.sender`"
      },
      "selfPermit(address,uint256,uint256,uint8,bytes32,bytes32)": {
        "notice": "Permits this contract to spend a given token from `msg.sender`"
      },
      "selfPermitAllowed(address,uint256,uint256,uint8,bytes32,bytes32)": {
        "notice": "Permits this contract to spend the sender's tokens for permit signatures that have the `allowed` parameter"
      },
      "selfPermitAllowedIfNecessary(address,uint256,uint256,uint8,bytes32,bytes32)": {
        "notice": "Permits this contract to spend the sender's tokens for permit signatures that have the `allowed` parameter"
      },
      "selfPermitIfNecessary(address,uint256,uint256,uint8,bytes32,bytes32)": {
        "notice": "Permits this contract to spend a given token from `msg.sender`"
      },
      "swapExactTokensForTokens(uint256,uint256,address[],address)": {
        "notice": "Swaps `amountIn` of one token for as much as possible of another token"
      },
      "swapTokensForExactTokens(uint256,uint256,address[],address)": {
        "notice": "Swaps as little as possible of one token for an exact amount of another token"
      },
      "sweepToken(address,uint256)": {
        "notice": "Transfers the full amount of a token held by this contract to msg.sender"
      },
      "sweepToken(address,uint256,address)": {
        "notice": "Transfers the full amount of a token held by this contract to recipient"
      },
      "sweepTokenWithFee(address,uint256,address,uint256,address)": {
        "notice": "Transfers the full amount of a token held by this contract to recipient, with a percentage between 0 (exclusive) and 1 (inclusive) going to feeRecipient"
      },
      "sweepTokenWithFee(address,uint256,uint256,address)": {
        "notice": "Transfers the full amount of a token held by this contract to msg.sender, with a percentage between 0 (exclusive) and 1 (inclusive) going to feeRecipient"
      },
      "unwrapWETH9(uint256)": {
        "notice": "Unwraps the contract's WETH9 balance and sends it to msg.sender as ETH."
      },
      "unwrapWETH9(uint256,address)": {
        "notice": "Unwraps the contract's WETH9 balance and sends it to recipient as ETH."
      },
      "unwrapWETH9WithFee(uint256,address,uint256,address)": {
        "notice": "Unwraps the contract's WETH9 balance and sends it to recipient as ETH, with a percentage between 0 (exclusive), and 1 (inclusive) going to feeRecipient"
      },
      "unwrapWETH9WithFee(uint256,uint256,address)": {
        "notice": "Unwraps the contract's WETH9 balance and sends it to msg.sender as ETH, with a percentage between 0 (exclusive), and 1 (inclusive) going to feeRecipient"
      },
      "wrapETH(uint256)": {
        "notice": "Wraps the contract's ETH balance into WETH9"
      },
      "yumyumswapSwapCallback(int256,int256,bytes)": {
        "notice": "Called to `msg.sender` after executing a swap via IYumyumSwapPool#swap."
      }
    },
    "version": 1
  },
  "storageLayout": {
    "storage": [
      {
        "astId": 6601,
        "contract": "contracts/SwapRouter02.sol:SwapRouter02",
        "label": "amountInCached",
        "offset": 0,
        "slot": "0",
        "type": "t_uint256"
      }
    ],
    "types": {
      "t_uint256": {
        "encoding": "inplace",
        "label": "uint256",
        "numberOfBytes": "32"
      }
    }
  }
}